:020000040000FA
:100000000C94CF000C94F7000C94F7000C94F700BC
:100010000C94F7000C94F7000C94F7000C94F70084
:100020000C94F7000C94F7000C94F7000C94F70074
:100030000C94F7000C94F7000C94F7000C94F70064
:100040000C9440060C94F7000C940E060C94E805F2
:100050000C94F7000C94F7000C94F7000C94F70044
:100060000C94F7000C94F700000000080002010057
:100070000003040700000000000000000A3D3D3DB1
:100080003D3D2056656E7469436F6E6469417070C2
:1000900020697320696E20746865204C6F6F702032
:1000A0006D6F6465206E6F772E2E2E0A000A3D3D1F
:1000B0003D3D3D2056656E7469436F6E64694170C5
:1000C000702076657273696F6E202573207374617A
:1000D0007274696E672E2E2E0A000A2A2A2A2A2A8C
:1000E0002054686520436F6E646974696F6E657231
:1000F000206973204F4E202870696E3A20256929A7
:1001000020616E6420736C656570696E6720256977
:10011000207365632E2E2E0A000A2A2A2A2A2A20F4
:1001200054686520436F6E646974696F6E657220F0
:100130006973204F4646202870696E3A2025692948
:1001400020616E6420736C656570696E6720256937
:10015000207365636F6E64732E2E2E0A00000000FC
:1001600000250028002B0000000000240027002AA2
:100170000004040404040404040202020202020350
:10018000030303030301020408102040800102045A
:10019000081020010204081020008A06F90A112420
:1001A0001FBECFEFD8E0DEBFCDBF24E0A2E2B4E0B7
:1001B00001C01D92A23EB207E1F714E0A0E0B1E059
:1001C000E8ECF4E202C005900D92A232B107D9F733
:1001D00010E0CEECD0E004C02197FE010E94331065
:1001E000CD3CD107C9F70E94FE060C9457120C941F
:1001F000000090E0FC01EB57FE4F24918F589E4F7A
:10020000FC018491882399F090E0880F991FFC01EC
:10021000E959FE4FA591B491FC01E35AFE4F859137
:1002200094918FB7F894EC91E22BEC938FBF0895E3
:10023000AF92BF92CF92DF92EF92FF920F931F93F4
:10024000CF93DF936C017B018B01040F151FEB0132
:100250005E01AE18BF08C017D10759F06991D601E9
:10026000ED91FC910190F081E02DC6010995892B5B
:1002700079F7C501DF91CF911F910F91FF90EF901A
:10028000DF90CF90BF90AF900895FC01538D448DC7
:10029000252F30E0842F90E0821B930B541710F031
:1002A000CF96089501970895FC01918D828D98173E
:1002B00061F0A28DAE0FBF2FB11D5D968C91928D16
:1002C0009F5F9F73928F90E008958FEF9FEF089547
:1002D000FC01918D828D981731F0828DE80FF11D10
:1002E000858D90E008958FEF9FEF0895FC01918D2B
:1002F000228D892F90E0805C9F4F821B91098F7324
:10030000992708958BE394E00E94760121E0892BE0
:1003100009F420E0822F089580E090E0892B29F0F5
:100320000E94820181110C9400000895FC01A48DAB
:10033000A80FB92FB11DA35ABF4F2C91848D90E007
:1003400001968F739927848FA689B7892C93A089EA
:10035000B1898C91837080648C93938D848D981374
:1003600006C00288F389E02D80818F7D8083089507
:10037000EF92FF920F931F93CF93DF93EC0181E0F5
:10038000888F9B8D8C8D98131AC0E889F98980819C
:1003900085FF15C09FB7F894EE89FF896083E889CF
:1003A000F98980818370806480839FBF81E090E0C1
:1003B000DF91CF911F910F91FF90EF900895F62E4E
:1003C0000B8D10E00F5F1F4F0F731127E02E8C8DE8
:1003D0008E110CC00FB607FCFACFE889F98980812D
:1003E00085FFF5CFCE010E949601F1CFEB8DEC0F8A
:1003F000FD2FF11DE35AFF4FF0829FB7F8940B8F4A
:10040000EA89FB8980818062CFCF682F8BE394E0FB
:100410000C94B801CF93DF93EC01888D8823B9F059
:10042000AA89BB89E889F9898C9185FD03C08081FF
:1004300086FD0DC00FB607FCF7CF8C9185FFF2CF7C
:10044000808185FFEDCFCE010E949601E9CFDF913B
:10045000CF91089590E0FC01E859FF4F2491FC01F1
:10046000EB57FE4F3491FC01EF58FE4FE491EE2321
:10047000C9F0222339F0233001F1A8F4213019F119
:10048000223029F1F0E0EE0FFF1FE35AFE4FA59155
:10049000B4918FB7F894EC91611126C030953E234A
:1004A0003C938FBF08952730A9F02830C9F024303D
:1004B00049F7809180008F7D03C0809180008F7705
:1004C00080938000DFCF84B58F7784BDDBCF84B588
:1004D0008F7DFBCF8091B0008F778093B000D2CF1B
:1004E0008091B0008F7DF9CF3E2BDACF1F93CF9351
:1004F000DF93182FEB010E94F900209739F460E098
:10050000812FDF91CF911F910C942A02CF3FD1050B
:1005100011F461E0F5CFE12FF0E0E859FF4FE491ED
:10052000E33031F140F4E130B1F0E230E1F0C038D5
:10053000D1057CF7E4CFE73029F1E83059F1E43018
:10054000B1F780918000806280938000D0938B000F
:10055000C0938A0004C084B5806884BDC7BDDF91A4
:10056000CF911F91089584B5806284BDC8BDF7CF37
:1005700080918000806880938000D0938900C09330
:100580008800EDCF8091B00080688093B000C09368
:10059000B300E5CF8091B00080628093B000C0933B
:1005A000B400DDCF8E3008F08E5087708064809369
:1005B0007C0080917A00806480937A0080917A0038
:1005C00086FDFCCF809178009091790008953FB727
:1005D000F8948091270490912804A0912904B09167
:1005E0002A0426B5A89B05C02F3F19F00196A11D2E
:1005F000B11D3FBFBA2FA92F982F8827BC01CD016D
:10060000620F711D811D911D42E0660F771F881FCB
:10061000991F4A95D1F708958F929F92AF92BF92FA
:10062000CF92DF92EF92FF929C01A8EEB3E00E947E
:10063000EA0E6B017C010E94E7024B015C010E9403
:10064000E702681979098A099B09683E73408105A8
:100650009105A8F321E0C21AD108E108F10888EE5B
:10066000880E83E0981EA11CB11CC114D104E104C2
:10067000F10429F7FF90EF90DF90CF90BF90AF90FB
:100680009F908F9008950F931F93CF93DF9305E072
:1006900010E0D0E0C0E00150110959F08EE00E9456
:1006A000D2020A9708F421968AE090E00E940C0397
:1006B000F2CF81E0249709F080E0DF91CF911F9184
:1006C0000F910895CF93C82F8A3029F46DE08BE302
:1006D00094E00E94B8016C2F8BE394E0CF910C94CE
:1006E000B801FB0101900020E9F73197AF01461BEB
:1006F000570B0C9418018F929F92AF92BF920F9359
:100700001F93CF93DF93CDB7DEB7A1970FB6F894C1
:10071000DEBF0FBECDBF19A2423008F44AE08E0101
:100720000F5D1F4F842E912CB12CA12CA50194019B
:100730000E941110E62FB901CA01EA3004F5E05D0C
:10074000D801EE938D01232B242B252B79F790E0F4
:1007500080E0109729F0BD018BE394E00E947103C3
:10076000A1960FB6F894DEBF0FBECDBFDF91CF913B
:100770001F910F91BF90AF909F908F900895E95C6B
:10078000DFCFCF93DF93BC018BE394E00E94710332
:10079000EC016BE971E08BE394E00E9471038C0F34
:1007A0009D1FDF91CF9108952F923F924F925F92BC
:1007B0006F927F928F929F92AF92BF92CF92DF9271
:1007C000EF92FF920F931F93CF93DF93CDB7DEB7D6
:1007D0002F88388C8E01075E1F4FD12CC12CF10160
:1007E000EC0DFD1D8081882309F46EC1853209F06E
:1007F00068C181818E3219F48FEFC81AD80AF101CD
:10080000EC0DFD1DE18080ED8E0D8A3000F5EFEFDF
:10081000CE1ADE0A0E2C000CFF08F0E3EF1AF108E6
:100820008FEFC81AD80AF101EC0DFD1D80818436C6
:1008300051F104F5883509F430C16CF4853209F4BE
:100840003FC1823409F456C067EB71E09FC082E07B
:10085000E82EF12CE5CF823609F452C08336A1F799
:100860007801F2E0EF0EF11CF80180810E94050290
:10087000870190C08C3609F4FEC00CF5863609F469
:100880004EC0893609F7F801808091800E5F1F4FB6
:10089000092C000CAA08BB084AE0C501B401B7FE48
:1008A0000BC08DE20E94050266277727CB016819ED
:1008B00079098A099B094AE00E947B036BC0833750
:1008C00009F4E1C0883709F4EEC08F3609F0BCCFD7
:1008D000780182E0E80EF11CF801808191816EE9D7
:1008E00071E0892B11F461EA71E08BE394E00E94DE
:1008F0007103BECF65EA71E08BE394E00E9471035F
:100900007801E2E0EE0EF11CF80160817181072EA2
:10091000000C880B990B42E00E947B03A9CFF801E1
:1009200080809180A280B3800C5F1F4FA50194014D
:10093000C501B4010E940C1068EA71E0811126C063
:1009400024013501E89477F82FEF3FEF4FE75FE799
:10095000C301B2010E940C1081110CC02FEF3FEFB8
:100960004FE75FE7C301B2010E948F0D6CEA71E0AF
:10097000181664F02FEF3FEF4FE75FE4C501B401B5
:100980000E940710181654F460EB71E08BE394E0BA
:100990000E947103FFEFCF1ADF0A21CF2FEF3FEF45
:1009A0004FE75FECC501B4010E948F0D87FDECCFCE
:1009B00020E030E0A901C501B4010E948F0D87FF3E
:1009C00007C08DE20E940502B7FAB094B7F8B09460
:1009D000F12C60E070E080E09FE3FE1440F420E042
:1009E00030E040E251E40E94660FF394F6CFA50197
:1009F00094010E94FA0E4B015C010E94D80F2B015A
:100A00003C014AE00E947B03EE2021F2C301B201C7
:100A10000E94940D9B01AC01C501B4010E94F90E26
:100A20004B015C018EE20E940502EA94FFEFEF1693
:100A300009F4B0CF20E030E040E251E4C501B40158
:100A40000E94F50D2B013C010E94D80F4B01B12CE7
:100A5000A12C4AE0C501B4010E947B03C501B40189
:100A60000E94940D9B01AC01C301B2010E94F90EDA
:100A70004B015C01DACFF80180809180A280B380C5
:100A80000C5F1F4F09CFF801608171810E5F1F4F0E
:100A90006115710509F07ACF7DCF64EB71E08BE3CE
:100AA00094E00E9471037801F2E0EF0EF11CF8016E
:100AB00060817181072E000C880B990B40E12CCFCF
:100AC00085E20E94050266CFDF91CF911F910F91C1
:100AD000FF90EF90DF90CF90BF90AF909F908F905E
:100AE0007F906F905F904F903F902F900895CF939D
:100AF000DF93EC018091D8049091D904009759F0CC
:100B00002091DA043091DB042C173D0720F081E0BE
:100B1000DF91CF910895BE016F5F7F4F0E945E11FC
:100B2000009789F09093D9048093D804D093DB0484
:100B3000C093DA042091DC043091DD04232B39F7D3
:100B4000FC011082E4CF80E0E3CFCF93DF93CDB7F9
:100B5000DEB72E970FB6F894DEBF0FBECDBFAE0145
:100B60004D5E5F4FFA0161917191AF0182E693E0B2
:100B70009A8789871C861B8682E08C831E861D8649
:100B8000CE0101960E94020B2E960FB6F894DEBF9E
:100B90000FBECDBFDF91CF91089570E060E083E09C
:100BA0000E9476021F9284EB8F931F9283E08F93B3
:100BB00089E191E09F938F930E94A5050F900F907C
:100BC0000F900F900F900F9084EB90E00C940C031B
:100BD0001F920F920FB60F9211242F933F934F93B2
:100BE0005F936F937F938F939F93AF93BF93EF9395
:100BF000FF938BE394E00E949601FF91EF91BF91E8
:100C0000AF919F918F917F916F915F914F913F91A4
:100C10002F910F900FBE0F901F9018951F920F925B
:100C20000FB60F9211242F938F939F93EF93FF93FF
:100C3000E0914B04F0914C048081E0915104F091DB
:100C4000520482FD1BC09081809154048F5F8F738A
:100C500020915504821741F0E0915404F0E0E55CE6
:100C6000FB4F958F80935404FF91EF919F918F914B
:100C70002F910F900FBE0F901F9018958081F4CF89
:100C80001F920F920FB60F9211242F933F938F93C1
:100C90009F93AF93BF938091230490912404A091DC
:100CA0002504B09126043091220423E0230F2D3730
:100CB00058F50196A11DB11D2093220480932304B1
:100CC00090932404A0932504B093260480912704D4
:100CD00090912804A0912904B0912A040196A11DA5
:100CE000B11D8093270490932804A0932904B09306
:100CF0002A04BF91AF919F918F913F912F910F90B7
:100D00000FBE0F901F90189526E8230F0296A11D85
:100D1000B11DD2CF10923E0410923D0488EE93E0B4
:100D2000A0E0B0E080933F0490934004A09341047E
:100D3000B09342048DE891E090933C0480933B048F
:100D400085EC90E0909348048093470484EC90E015
:100D500090934A048093490480EC90E090934C0473
:100D600080934B0481EC90E090934E0480934D046B
:100D700082EC90E09093500480934F0486EC90E0D6
:100D8000909352048093510410925404109255048D
:100D900010925604109257041092D9041092D8045D
:100DA0001092DB041092DA041092DD041092DC043D
:100DB00090E080E00E9477052091D8043091D9041A
:100DC000811113C02115310519F0C9010E94D510F8
:100DD0001092D9041092D8041092DD041092DC0411
:100DE0001092DB041092DA0408951092DD04109240
:100DF000DC046DE971E0C9010C942D12CF93DF93EF
:100E000000D000D0CDB7DEB7789484B5826084BDC1
:100E100084B5816084BD85B5826085BD85B58160FE
:100E200085BD80916E00816080936E00109281007C
:100E30008091810082608093810080918100816037
:100E400080938100809180008160809380008091F8
:100E5000B10084608093B1008091B0008160809384
:100E6000B00080917A00846080937A0080917A004B
:100E7000826080937A0080917A00816080937A000A
:100E800080917A00806880937A001092C1008091EE
:100E9000B100887F82608093B100E0914B04F091B3
:100EA0004C0482E08083E0914704F0914804108272
:100EB000E0914904F0914A048FEC8083109253042E
:100EC000E0914F04F091500486E08083E0914D045E
:100ED000F0914E04808180618083E0914D04F09117
:100EE0004E04808188608083E0914D04F0914E042F
:100EF000808180688083E0914D04F0914E04808170
:100F00008F7D808383E00E94F90082E090E00E9460
:100F10000C0389EC91E09F938F938DEA90E09F936F
:100F20008F930E94A5050F900F900F900F900E9435
:100F30004303882349F08CED91E00E94C1038CE2C9
:100F400091E00E940C03F3CF0E94CD056CE570E0A8
:100F500083E00E9476021F928CE38F931F9283E0BE
:100F60008F938AED90E09F938F930E94A5058CE369
:100F700090E00E940C031092000181E090E09093B9
:100F80003A04809339048EE00E94D2029C838B83C2
:100F9000BC0190E080E00E94940D20E030E040E24F
:100FA00051E40E94F50D20E030EC4FE754E40E943C
:100FB000660F20E030E040E251E40E94F50D9F937F
:100FC0008F937F936F9383E092E09F938F938BE354
:100FD00094E09F938F930E94D4030FB6F894DEBFE2
:100FE0000FBECDBFE7E7F1E090E080E021913191C5
:100FF0004B815C814217530728F0208131814217D1
:10100000530730F001968830910581F790E080E039
:1010100090932C0480932B04892B09F440C027E57E
:10102000A22E21E0B22E87E691E09C838B8301E023
:1010300010E037E2C32E32E0D32E4BE3E42E44E03F
:10104000F42E92E0A90EB11CEB81FC813296FC8358
:10105000EB8380912B0490912C0480179107FCF076
:10106000F5016081718183E00E947602EB81FC8151
:1010700081818F9380818F93DF92CF92FF92EF9245
:101080000E94D4038AE090E00E940C030F5F1F4F80
:101090000F900F900F900F900F900F90D2CF8091E4
:1010A0002B0490912C0490933A04809339048CE79C
:1010B00090E09F938F930E94A5050F900F900DE2F3
:1010C00014E08BEE682E82E0782E9AE0292E93E0D1
:1010D000392E0E944303882309F43FC082E592E041
:1010E0000E94C10380910001811109C00E94CD05B9
:1010F00081E08093000110923A04109239048EE04E
:101100000E94D2029F938F9381E08F938CE28F9302
:101110008FE792E09F938F932BE334E03F932F93DD
:101120000E94D4038CE291E00E940C030FB6F89465
:10113000DEBF0FBECDBFC42CD92C8AE090E00E9448
:101140000C0380E090E0892B29F00E94820181113C
:101150000E9400004C2C9D2CBCCF80910001882364
:1011600019F16CE570E083E00E9476021F928CE337
:101170008F931F9283E08F938AED90E09F938F93DC
:101180000E94A5058CE390E00E940C0310920001E0
:10119000E1E0F0E0F0933A04E09339040F900F900F
:1011A0000F900F900F900F908EE00E94D2027C0162
:1011B000BC0190E080E00E94940D20E030E040E22D
:1011C00051E40E94F50D20E030EC4FE754E40E941A
:1011D000660F20E030E040E251E40E94F50D862EDB
:1011E00079838A83592E80913304909134049093AB
:1011F0003204809331044091350450913604509369
:1012000034044093330420913704309138043093F0
:10121000360420933504F0923804E09237048417A2
:10122000950708F4A9C071E060E04817590708F075
:1012300070E0872F962F70E060E04217530708F4A4
:10124000A0C02417350708F401962E153F0508F4B1
:101250009BC00196E216F30608F49AC029EBA22E71
:1012600021E0B22EF50101900020E9F731976F01DE
:10127000CA18DB08C6010E947705811191C08091D0
:10128000D8049091D904009711F00E94D5101092C3
:10129000D9041092D8041092DD041092DC0410924C
:1012A000DB041092DA04FF92EF9227EB32E03F93D7
:1012B0002F931F930F930E9434128091D9048F9320
:1012C0008091D8048F935F925A815F9389818F9325
:1012D0008F921F930F93EBEBF2E0FF93EF934BE3AF
:1012E00054E05F934F930E94D4030FB6F894DEBF8F
:1012F0000FBECDBFE7E7F1E0D12CC12C81919191D8
:10130000E816F90628F080819181E816F90648F080
:101310002FEFC21AD20A38E0C316D10479F7C42CD1
:10132000D92CD0922C04C0922B048091DC04909193
:10133000DD04892B09F4E4C0E090D804F090D904CE
:1013400069EB71E0C7010E942412892BA9F5E09195
:101350003904F0913A04EE0FFF1FE959FE4F8181E5
:101360008F9380818F937F926F924BE354E05F93D2
:101370004F930E94D403EAC090E080E061E070E007
:101380005CCF6F5F7F4F61CF6230710509F42CC174
:10139000039709F063CF81ECA82E81E0B82E62CFCD
:1013A000D092DD04C092DC04B5018091D804909104
:1013B000D9040E942D1277CF66EC71E0C7010E941C
:1013C0002412892B09F09CC08091390490913A0431
:1013D0008C159D05E4F57601EE0CFF1CF701E95A2A
:1013E000FE4F6081718183E00E947602D0923A04C0
:1013F000C0923904F701E959FE4F81818F938081B2
:101400008F933F922F921F930F930E9434128091DB
:10141000390490913A041F930F93FC01EE0FFF1FC4
:10142000EE0FFF1FE95CFE4F23812F9322812F9344
:1014300021812F9320812F939F938F93E8E4F3E0F2
:10144000FF93EF934BE354E05F934F9351C0C81663
:10145000D9060CF0C5C09F938F93DF92CF922EE0F8
:1014600033E03F932F938BE394E09F938F930E94FD
:10147000D403A0902B04B0902C047501EE0CFF1C3B
:10148000F701E95DFE4F6081718183E00E94760281
:10149000B0923A04A0923904F701E959FE4F8181D4
:1014A0008F9380818F933F922F921F930F930E946F
:1014B00034128091390490913A041F930F93FC01E8
:1014C000EE0FFF1FEE0FFF1FE95FFE4F23812F93EB
:1014D00022812F9321812F9320812F939F938F938C
:1014E00022E433E03F932F938BE394E09F938F9319
:1014F0000E94D4030FB6F894DEBF0FBECDBF1DCE41
:10150000C114D10451F50E944303882309F415CE78
:101510008BE793E00E94C1038091000181110DCE01
:101520000E94CD0581E0809300018F938CE28F9320
:10153000E8EAF3E0FF93EF934BE354E05F934F93BC
:101540000E94D4038CE291E00E940C030F900F9054
:101550000F900F900F900F90F0CD809139049091E3
:101560003A04C816D90654F57601EE0CFF1CF701B3
:10157000E95DFE4F6081718183E00E947602D09226
:101580003A04C0923904F701E959FE4F81818F93E3
:1015900080818F933F922F921F930F930E9434125A
:1015A0008091390490913A041F930F93FC01EE0F40
:1015B000FF1FEE0FFF1FE95FFE4F36CF8C159D0515
:1015C0007CF49F938F93DF92CF9222EE33E03F9390
:1015D0002F938BE394E09F938F930E94D4038ACF41
:1015E000880F991FFC01B9CE96ECA92E91E0B92E77
:1015F00039CE8091D8049091D904009711F00C94C1
:10160000D5100895CF93DF93EC018B8188608B8395
:10161000CE010E94110B2B81277F2B83DF91CF916D
:101620000895ABE0B0E0E7E1FBE00C94B30E7C0181
:101630003B018A01FC0117821682838181FFC8C1A8
:10164000CE0101965C01F7019381F30193FD859131
:1016500093FF81913F01882309F453C1853239F406
:1016600093FD859193FF81913F01853229F4B70164
:1016700090E00E94010DE7CF912C212C312CFFE14D
:10168000F31538F08B3211F190F4803209F1833286
:1016900029F137FC3CC020ED280F2A3050F536FEEA
:1016A00020C08AE0989E200D1124922E06C08D3213
:1016B00091F0803371F7689430F8F30193FD8591D0
:1016C00093FF81913F018111DACF21C0689431F8F5
:1016D000689432F8F2CF689433F8EFCF689434F816
:1016E000ECCFEAE02E9E200D1124222E689435F8CE
:1016F000E4CF8E3229F436FC04C1689436F8DDCF8D
:101700008C3619F4689437F8D8CF8836B1F2982F10
:101710009F7D95549330E0F08336A1F18337C1F17A
:10172000833509F063C02801F2E04F0E511CF80127
:10173000C080D180692D70E036FC02C06FEF7FEF72
:10174000C6010E94EB0C4C01689437F882010AC074
:101750000C5F1F4FFFE3F98388248394912C65016C
:10176000E89437F833FE2DC0522C8114910471F5A2
:10177000552009F468CFB70180E290E00E94010D86
:101780005A94F6CFF801808189830E5F1F4FE4CF12
:101790002801F2E04F0E511CF801C080D180692D64
:1017A00070E036FC02C06FEF7FEFC6010E94F60CBE
:1017B0004C018201D5CFB70180E290E00E94010D7B
:1017C0002A942814190409F0B0F7CECFF60137FC9B
:1017D000859137FE81916F01B70190E00E94010D64
:1017E00051105A94F1E08F1A9108BFCF843619F046
:1017F000893609F077C0F80137FE6BC060817181CE
:10180000828193810C5F1F4FF32DFF763F2E97FF50
:1018100009C090958095709561957F4F8F4F9F4F30
:10182000689437F82AE030E0A5010E94310DC82EF7
:10183000CA188C2C432C36FE0CC0E89440F8C9140E
:1018400040F434FE05C032FC03C0F32DFE7E4F2E63
:10185000892C44FE95C0FE01EC0DF11D8081803382
:1018600009F087C0242D297E422E842D8870582EA1
:1018700043FC95C040FE8FC09C2C821418F42C0CA5
:10188000922C981844FE91C0B70180E390E00E942A
:10189000010D42FE09C088E790E041FE02C088E5E4
:1018A00090E0B7010E94010DC91408F48AC0CA94DF
:1018B000D12C9FEFC91AD90ACA0CDB1CF601829100
:1018C0006F01B70190E00E94010DAC14BD04B1F7A7
:1018D0004FCF60817181072E000C880B990B0E5F32
:1018E0001F4F92CFD32CE894D4F82AE030E085370C
:1018F00039F1232D297FD22E8F3601F148F4883516
:10190000A9F0F701868197812B96E2E10C94CF0E26
:10191000803749F08837A9F7D4FE02C06894D2F81E
:1019200020E130E00DC06894D4F8F6CF34FE03C057
:10193000822F8660D82E20E132E002C028E030E01D
:10194000F801D7FE0FC060817181828193810C5FA5
:101950001F4FA5010E94310DC82ECA183D2CE894D6
:1019600037F867CF6081718190E080E00E5F1F4F94
:10197000F0CF42FC02C0839478CF8394839475CFD8
:10198000842D867809F471CFF6CFB70180E290E01C
:101990000E94010D83948214C0F3512C73CF522CFA
:1019A0005818821408F46ECFF8CF842D867809F485
:1019B0007BCF8BE241FE80E247FC8DE2B70190E0F5
:1019C00071CFB70180E390E00E94010D9A946CCF33
:1019D0008FEF9FEF99CFFC0105906150704001108F
:1019E000D8F7809590958E0F9F1F0895FC01615048
:1019F000704001900110D8F7809590958E0F9F1F31
:101A000008950F931F93CF93DF93182F092FEB01A6
:101A10008B8181FD09C01FEF0FEF812F902FDF9188
:101A2000CF911F910F91089582FF14C02E813F81A5
:101A30008C819D81281739073CF4E881F981CF0119
:101A400001969983888310838E819F8101969F835D
:101A50008E83E3CFE885F985812F0995892BA1F342
:101A6000DACFFA01AA27283051F1203181F1E89428
:101A70006F936E7F6E5F7F4F8F4F9F4FAF4FB1E081
:101A80003ED0B4E03CD0670F781F891F9A1FA11D7C
:101A9000680F791F8A1F911DA11D6A0F711D811D7D
:101AA000911DA11D20D009F468943F912AE0269F42
:101AB00011243019305D3193DEF6CF010895462FA1
:101AC0004770405D4193B3E00FD0C9F7F6CF462F82
:101AD0004F70405D4A3318F0495D31FD40524193EB
:101AE00002D0A9F7EACFB4E0A695979587957795A8
:101AF0006795BA95C9F700976105710508959B012F
:101B0000AC010A2E06945795479537952795BA95B7
:101B1000C9F7620F731F841F951FA01D08950E94AF
:101B2000D10D08F481E00895E89409C097FB3EF4D4
:101B300090958095709561957F4F8F4F9F4F99231A
:101B4000A9F0F92F96E9BB279395F6958795779598
:101B50006795B795F111F8CFFAF4BB0F11F460FF58
:101B60001BC06F5F7F4F8F4F9F4F16C0882311F0B0
:101B700096E911C0772321F09EE8872F762F05C0C4
:101B8000662371F096E8862F70E060E02AF09A955F
:101B9000660F771F881FDAF7880F9695879597F954
:101BA0000895990F0008550FAA0BE0E8FEEF1616EE
:101BB0001706E807F907C0F012161306E407F50741
:101BC00098F0621B730B840B950B39F40A2661F0B5
:101BD000232B242B252B21F408950A2609F4A14058
:101BE000A6958FEF811D811D08950E94080E0C940B
:101BF000790E0E946B0E38F00E94720E20F0952331
:101C000011F00C94620E0C94680E11240C94AD0E1D
:101C10000E948A0E70F3959FC1F3950F50E0551FF7
:101C2000629FF001729FBB27F00DB11D639FAA2731
:101C3000F00DB11DAA1F649F6627B00DA11D661F80
:101C4000829F2227B00DA11D621F739FB00DA11DA1
:101C5000621F839FA00D611D221F749F3327A00D5B
:101C6000611D231F849F600D211D822F762F6A2FF7
:101C700011249F5750409AF0F1F088234AF0EE0F5C
:101C8000FF1FBB1F661F771F881F91505040A9F789
:101C90009E3F510580F00C94620E0C94AD0E5F3F98
:101CA000E4F3983ED4F3869577956795B795F795C5
:101CB000E7959F5FC1F7FE2B880F911D969587953D
:101CC00097F9089597F99F6780E870E060E00895BC
:101CD0009FEF80EC089500240A9416161706180644
:101CE0000906089500240A94121613061406050620
:101CF0000895092E0394000C11F4882352F0BB0FB1
:101D000040F4BF2B11F460FF04C06F5F7F4F8F4F13
:101D10009F4F089557FD9058440F551F59F05F3F4E
:101D200071F04795880F97FB991F61F09F3F79F0FD
:101D300087950895121613061406551FF2CF46957F
:101D4000F1DF08C0161617061806991FF1CF869501
:101D50007105610508940895E894BB2766277727E5
:101D6000CB0197F908952F923F924F925F926F9215
:101D70007F928F929F92AF92BF92CF92DF92EF921B
:101D8000FF920F931F93CF93DF93CDB7DEB7CA1B9C
:101D9000DB0B0FB6F894DEBF0FBECDBF09942A88C7
:101DA000398848885F846E847D848C849B84AA846F
:101DB000B984C884DF80EE80FD800C811B81AA81FC
:101DC000B981CE0FD11D0FB6F894DEBF0FBECDBFC7
:101DD000ED010895A29FB001B39FC001A39F700DB4
:101DE000811D1124911DB29F700D811D1124911D23
:101DF00008955058BB27AA270E94110F0C94790E02
:101E00000E946B0E38F00E94720E20F039F49F3F52
:101E100019F426F40C94680E0EF4E095E7FB0C948C
:101E2000620EE92F0E948A0E58F3BA1762077307F1
:101E30008407950720F079F4A6F50C94AC0E0EF407
:101E4000E0950B2EBA2FA02D0B01B90190010C01CA
:101E5000CA01A0011124FF27591B99F0593F50F4E2
:101E6000503E68F11A16F040A22F232F342F44273A
:101E7000585FF3CF469537952795A795F040539532
:101E8000C9F77EF41F16BA0B620B730B840BBAF002
:101E90009150A1F0FF0FBB1F661F771F881FC2F76D
:101EA0000EC0BA0F621F731F841F48F48795779581
:101EB0006795B795F7959E3F08F0B0CF9395880F3B
:101EC00008F09927EE0F9795879508950E947A0F4D
:101ED0000C94790E0E94720E58F00E946B0E40F026
:101EE00029F45F3F29F00C94620E51110C94AD0E51
:101EF0000C94680E0E948A0E68F39923B1F355235F
:101F000091F3951B550BBB27AA276217730784070C
:101F100038F09F5F5F4F220F331F441FAA1FA9F3A2
:101F200035D00E2E3AF0E0E832D091505040E69590
:101F3000001CCAF72BD0FE2F29D0660F771F881FF1
:101F4000BB1F261737074807AB07B0E809F0BB0BE4
:101F5000802DBF01FF2793585F4F3AF09E3F5105F8
:101F600078F00C94620E0C94AD0E5F3FE4F3983E53
:101F7000D4F3869577956795B795F7959F5FC9F7E1
:101F8000880F911D9695879597F90895E1E0660F62
:101F9000771F881FBB1F621773078407BA0720F0DB
:101FA000621B730B840BBA0BEE1F88F7E095089544
:101FB0000E94920E88F09F5798F0B92F9927B75139
:101FC000B0F0E1F0660F771F881F991F1AF0BA95DD
:101FD000C9F714C0B13091F00E94AC0EB1E0089581
:101FE0000C94AC0E672F782F8827B85F39F0B93F73
:101FF000CCF3869577956795B395D9F73EF4909590
:102000008095709561957F4F8F4F9F4F08950E94E7
:10201000D10D08F48FEF08950E94D10D880B990B14
:102020000895A1E21A2EAA1BBB1BFD010DC0AA1F19
:10203000BB1FEE1FFF1FA217B307E407F50720F031
:10204000A21BB30BE40BF50B661F771F881F991FAC
:102050001A9469F760957095809590959B01AC01F5
:10206000BD01CF010895EE0FFF1F0590F491E02D03
:1020700009940F931F93CF93DF938230910510F44F
:1020800082E090E0E091E004F091E10430E020E0B3
:10209000B0E0A0E0309799F42115310509F44AC069
:1020A000281B390B24303105D8F58A819B816115B5
:1020B000710589F1FB0193838283FE0111C0408188
:1020C00051810281138148175907E0F048175907D9
:1020D00099F4109761F012960C93129713961C9333
:1020E0003296CF01DF91CF911F910F910895009308
:1020F000E0041093E104F4CF2115310551F04217AB
:10210000530738F0A901DB019A01BD01DF01F80195
:10211000C1CFEF01F9CF9093E1048093E004CDCFDC
:10212000FE01E20FF31F819391932250310939830D
:102130002883D7CF2091DE043091DF04232B41F494
:1021400020910301309104013093DF042093DE04D9
:1021500020910101309102012115310541F42DB783
:102160003EB74091050150910601241B350BE091CB
:10217000DE04F091DF04E217F307A0F42E1B3F0BFF
:102180002817390778F0AC014E5F5F4F24173507E9
:1021900048F04E0F5F1F5093DF044093DE0481939D
:1021A00091939FCFF0E0E0E09CCFCF93DF93009737
:1021B000E9F0FC01329713821282A091E004B09101
:1021C000E104ED0130E020E01097A1F4208131819D
:1021D000820F931F2091DE043091DF042817390706
:1021E00009F061C0F093DF04E093DE04DF91CF914A
:1021F0000895EA01CE17DF07E8F54A815B819E0169
:1022000041155105B1F7E901FB83EA8349915991E1
:10221000C40FD51FEC17FD0761F4808191810296F0
:10222000840F951FE90199838883828193819B8321
:102230008A83F0E0E0E012968D919C9113970097CD
:10224000B9F52D913C911197CD010296820F931F04
:102250002091DE043091DF042817390739F63097D2
:1022600051F51092E1041092E004B093DF04A093C2
:10227000DE04BCCFD383C28340815181840F951F7C
:10228000C817D90761F44E5F5F4F88819981480F65
:10229000591F518340838A819B81938382832115B7
:1022A000310509F0B0CFF093E104E093E0049ECF54
:1022B000FD01DC01C0CF13821282D7CFB0E0A0E0D5
:1022C000E4E6F1E10C94B50E8C01009751F4CB01DA
:1022D0000E9439108C01C801CDB7DEB7E0E10C9443
:1022E000D10EFC01E60FF71F9C0122503109E217C5
:1022F000F30708F49DC0D901CD91DC911197C61761
:10230000D70798F0C530D10530F3CE010497861772
:10231000970708F3C61BD70B2297C193D1936D93F0
:102320007C93CF010E94D510D6CF5B01AC1ABD0AB9
:102330004C018C0E9D1EA091E004B091E104512C43
:10234000412CF12CE12C109731F58091DE04909115
:10235000DF048815990509F05CC04616570608F099
:1023600058C08091010190910201009741F48DB70E
:102370009EB74091050150910601841B950BE8170B
:10238000F90708F055C0F093DF04E093DE04F9018B
:1023900071836083A0CF8D919C91119712966C9060
:1023A000129713967C901397A815B90559F56C01EF
:1023B00042E0C40ED11CCA14DB0420F1AC014A195E
:1023C0005B09DA011296159780F06282738251835D
:1023D0004083D9016D937C93E114F10471F0D7012E
:1023E0001396FC93EE93129776CF22968C0F9D1F37
:1023F000F90191838083F301EFCFF093E104E0933F
:10240000E00469CF4816590608F42C017D01D30178
:102410009ACFCB010E9439107C01009749F0AE01A0
:10242000B8010E941B12C8010E94D510870153CF2A
:1024300010E000E050CFFB01DC0102C001900D92E2
:1024400041505040D8F70895FB01DC018D91019077
:1024500080190110D9F3990B0895FB01DC0101905B
:102460000D920020E1F70895AEE0B0E0EAE3F2E17A
:102470000C94C10E0D891E8986E08C831A83098312
:102480008FEF9FE79E838D83AE01475E5F4F6F891D
:10249000788DCE0101960E94110B2F813885020F95
:1024A000131FF80110822E96E4E00C94DD0E10E06C
:1024B000CEECD0E004C0FE010E9433102196CF3C48
:1024C000D107C9F7F894FFCF010000E204800000B3
:1024D00000803F3333B33F000000409A9919409A7F
:1024E00099394000006040666686409A9999403369
:1024F00000470066007A009400B300D600F5009A09
:1025000099993F6666E63F00002040000040400089
:1025100000604000008040CDCC8C409A9999403DAD
:10252000005C0080009900B300CC00E000F50000E2
:10253000000A0014001E0032004600500064000033
:10254000000A00FF00CC016502FF026503CB03FF18
:102550000300000000B801180145010A0276015489
:102560000168010D0A006F6E006F66660030620040
:102570006E616E00696E66006F7666003078003FAF
:10258000005374616E64627900446F776E00557019
:1025900000332E332E33202832332E30382E323073
:1025A000323129002E2E2E2E2E2053657475703A4E
:1025B0002056656E746920697320617420746865A3
:1025C00020426F74746F6D2E2E2E003D3D3D3D3DBB
:1025D0002056656E7469207265717565737420612B
:1025E000742073746172743A202531662525000ABF
:1025F0002D2D2D2D2D20536D6F6F746820436F6E20
:10260000646920706F77657220696E6372656173AB
:10261000696E673A2025642525000A2E2E2E2E2E5F
:10262000204C6F6F702D73746172743A2056656E12
:1026300074692069732061742074686520426F7426
:10264000746F6D2E2E2E000A2E2E2E2E2E204170EF
:102650007020697320736C656570696E67202564EE
:10266000207365636F6E64732C207768696C6520D6
:1026700056656E74692050574D203D202564002515
:102680003464000A2D2D2056656E74693A20505727
:102690004D203D2025732C20526571756573742083
:1026A0003D2025316625253B205472656E643A2015
:1026B000257300092D2D20436F6E64693A206163F4
:1026C0007475616C20506F776572203D20256925F7
:1026D00025002533640009212121205768696C6594
:1026E00020555020746172676574206C6576656C46
:1026F0002028256929203C2061637475616C206C59
:102700006576656C2028256929000A0909090909E7
:10271000092D2D20436F6E64693A204C6576656CF7
:10272000203D2025693B20566F6C74616765203D14
:10273000202532663B20506F776572203D2025733F
:102740002525000A2E2E2E2E2E204C6F6F702D6305
:102750006865636B696E673A2056656E74692069B7
:1027600073206F6E20426F74746F6D2E2E2E0A00D0
:102770000A2E2E2E2E2E2041707020697320736C2D
:10278000656570696E67202564207365636F6E648C
:1027900073207768696C652056656E746920736C68
:1027A000656570696E672E2E2E0009212121205744
:1027B00068696C6520444F574E2074617267657478
:1027C000206C6576656C2028256929203E20616390
:1027D0007475616C206C6576656C202825692920EC
:0A27E0002D2049474E4F52452100BD
:107E0000112484B714BE81FFF0D085E080938100F7
:107E100082E08093C00088E18093C10086E0809377
:107E2000C20080E18093C4008EE0C9D0259A86E02C
:107E300020E33CEF91E0309385002093840096BBD3
:107E4000B09BFECF1D9AA8958150A9F7CC24DD24C4
:107E500088248394B5E0AB2EA1E19A2EF3E0BF2EE7
:107E6000A2D0813461F49FD0082FAFD0023811F036
:107E7000013811F484E001C083E08DD089C08234E0
:107E800011F484E103C0853419F485E0A6D080C0E4
:107E9000853579F488D0E82EFF2485D0082F10E0AE
:107EA000102F00270E291F29000F111F8ED06801E7
:107EB0006FC0863521F484E090D080E0DECF843638
:107EC00009F040C070D06FD0082F6DD080E0C81688
:107ED00080E7D80618F4F601B7BEE895C0E0D1E017
:107EE00062D089930C17E1F7F0E0CF16F0E7DF06D8
:107EF00018F0F601B7BEE89568D007B600FCFDCFD4
:107F0000A601A0E0B1E02C9130E011968C91119780
:107F100090E0982F8827822B932B1296FA010C0160
:107F200087BEE89511244E5F5F4FF1E0A038BF0790
:107F300051F7F601A7BEE89507B600FCFDCF97BE46
:107F4000E89526C08437B1F42ED02DD0F82E2BD052
:107F50003CD0F601EF2C8F010F5F1F4F84911BD097
:107F6000EA94F801C1F70894C11CD11CFA94CF0C13
:107F7000D11C0EC0853739F428D08EE10CD085E9AC
:107F80000AD08FE07ACF813511F488E018D01DD067
:107F900080E101D065CF982F8091C00085FFFCCF94
:107FA0009093C60008958091C00087FFFCCF809118
:107FB000C00084FD01C0A8958091C6000895E0E648
:107FC000F0E098E1908380830895EDDF803219F02E
:107FD00088E0F5DFFFCF84E1DECF1F93182FE3DFCA
:107FE0001150E9F7F2DF1F91089580E0E8DFEE27F6
:047FF000FF270994CA
:027FFE00040479
:00000001FF
